{
  "_format": "hh-sol-artifact-1",
  "contractName": "knft",
  "sourceName": "contracts/knft.sol",
  "abi": [
    {
      "inputs": [],
      "stateMutability": "nonpayable",
      "type": "constructor"
    },
    {
      "anonymous": false,
      "inputs": [
        {
          "indexed": true,
          "internalType": "address",
          "name": "owner",
          "type": "address"
        },
        {
          "indexed": true,
          "internalType": "address",
          "name": "approved",
          "type": "address"
        },
        {
          "indexed": true,
          "internalType": "uint256",
          "name": "tokenId",
          "type": "uint256"
        }
      ],
      "name": "Approval",
      "type": "event"
    },
    {
      "anonymous": false,
      "inputs": [
        {
          "indexed": true,
          "internalType": "address",
          "name": "owner",
          "type": "address"
        },
        {
          "indexed": true,
          "internalType": "address",
          "name": "operator",
          "type": "address"
        },
        {
          "indexed": false,
          "internalType": "bool",
          "name": "approved",
          "type": "bool"
        }
      ],
      "name": "ApprovalForAll",
      "type": "event"
    },
    {
      "anonymous": false,
      "inputs": [
        {
          "indexed": true,
          "internalType": "address",
          "name": "from",
          "type": "address"
        },
        {
          "indexed": true,
          "internalType": "address",
          "name": "to",
          "type": "address"
        },
        {
          "indexed": true,
          "internalType": "uint256",
          "name": "tokenId",
          "type": "uint256"
        }
      ],
      "name": "Transfer",
      "type": "event"
    },
    {
      "inputs": [
        {
          "internalType": "address",
          "name": "to",
          "type": "address"
        },
        {
          "internalType": "uint256",
          "name": "tokenId",
          "type": "uint256"
        }
      ],
      "name": "approve",
      "outputs": [],
      "stateMutability": "nonpayable",
      "type": "function"
    },
    {
      "inputs": [
        {
          "internalType": "address",
          "name": "owner",
          "type": "address"
        }
      ],
      "name": "balanceOf",
      "outputs": [
        {
          "internalType": "uint256",
          "name": "",
          "type": "uint256"
        }
      ],
      "stateMutability": "view",
      "type": "function"
    },
    {
      "inputs": [],
      "name": "collectionName",
      "outputs": [
        {
          "internalType": "string",
          "name": "",
          "type": "string"
        }
      ],
      "stateMutability": "view",
      "type": "function"
    },
    {
      "inputs": [],
      "name": "collectionSymbol",
      "outputs": [
        {
          "internalType": "string",
          "name": "",
          "type": "string"
        }
      ],
      "stateMutability": "view",
      "type": "function"
    },
    {
      "inputs": [],
      "name": "createknft",
      "outputs": [
        {
          "internalType": "uint256",
          "name": "",
          "type": "uint256"
        }
      ],
      "stateMutability": "nonpayable",
      "type": "function"
    },
    {
      "inputs": [
        {
          "internalType": "uint256",
          "name": "tokenId",
          "type": "uint256"
        }
      ],
      "name": "getApproved",
      "outputs": [
        {
          "internalType": "address",
          "name": "",
          "type": "address"
        }
      ],
      "stateMutability": "view",
      "type": "function"
    },
    {
      "inputs": [
        {
          "internalType": "address",
          "name": "owner",
          "type": "address"
        },
        {
          "internalType": "address",
          "name": "operator",
          "type": "address"
        }
      ],
      "name": "isApprovedForAll",
      "outputs": [
        {
          "internalType": "bool",
          "name": "",
          "type": "bool"
        }
      ],
      "stateMutability": "view",
      "type": "function"
    },
    {
      "inputs": [],
      "name": "name",
      "outputs": [
        {
          "internalType": "string",
          "name": "",
          "type": "string"
        }
      ],
      "stateMutability": "view",
      "type": "function"
    },
    {
      "inputs": [
        {
          "internalType": "uint256",
          "name": "tokenId",
          "type": "uint256"
        }
      ],
      "name": "ownerOf",
      "outputs": [
        {
          "internalType": "address",
          "name": "",
          "type": "address"
        }
      ],
      "stateMutability": "view",
      "type": "function"
    },
    {
      "inputs": [
        {
          "internalType": "address",
          "name": "from",
          "type": "address"
        },
        {
          "internalType": "address",
          "name": "to",
          "type": "address"
        },
        {
          "internalType": "uint256",
          "name": "tokenId",
          "type": "uint256"
        }
      ],
      "name": "safeTransferFrom",
      "outputs": [],
      "stateMutability": "nonpayable",
      "type": "function"
    },
    {
      "inputs": [
        {
          "internalType": "address",
          "name": "from",
          "type": "address"
        },
        {
          "internalType": "address",
          "name": "to",
          "type": "address"
        },
        {
          "internalType": "uint256",
          "name": "tokenId",
          "type": "uint256"
        },
        {
          "internalType": "bytes",
          "name": "data",
          "type": "bytes"
        }
      ],
      "name": "safeTransferFrom",
      "outputs": [],
      "stateMutability": "nonpayable",
      "type": "function"
    },
    {
      "inputs": [
        {
          "internalType": "address",
          "name": "operator",
          "type": "address"
        },
        {
          "internalType": "bool",
          "name": "approved",
          "type": "bool"
        }
      ],
      "name": "setApprovalForAll",
      "outputs": [],
      "stateMutability": "nonpayable",
      "type": "function"
    },
    {
      "inputs": [
        {
          "internalType": "bytes4",
          "name": "interfaceId",
          "type": "bytes4"
        }
      ],
      "name": "supportsInterface",
      "outputs": [
        {
          "internalType": "bool",
          "name": "",
          "type": "bool"
        }
      ],
      "stateMutability": "view",
      "type": "function"
    },
    {
      "inputs": [],
      "name": "symbol",
      "outputs": [
        {
          "internalType": "string",
          "name": "",
          "type": "string"
        }
      ],
      "stateMutability": "view",
      "type": "function"
    },
    {
      "inputs": [
        {
          "internalType": "uint256",
          "name": "tokenId",
          "type": "uint256"
        }
      ],
      "name": "tokenURI",
      "outputs": [
        {
          "internalType": "string",
          "name": "",
          "type": "string"
        }
      ],
      "stateMutability": "view",
      "type": "function"
    },
    {
      "inputs": [
        {
          "internalType": "address",
          "name": "from",
          "type": "address"
        },
        {
          "internalType": "address",
          "name": "to",
          "type": "address"
        },
        {
          "internalType": "uint256",
          "name": "tokenId",
          "type": "uint256"
        }
      ],
      "name": "transferFrom",
      "outputs": [],
      "stateMutability": "nonpayable",
      "type": "function"
    }
  ],
  "bytecode": "0x60806040523480156200001157600080fd5b506040518060400160405280600481526020017f6b6e6674000000000000000000000000000000000000000000000000000000008152506040518060400160405280600481526020017f6b6e66740000000000000000000000000000000000000000000000000000000081525081600090816200008f91906200049a565b508060019081620000a191906200049a565b505050620000b4620000ec60201b60201c565b60089081620000c491906200049a565b50620000d56200018660201b60201c565b60099081620000e591906200049a565b5062000581565b606060008054620000fd9062000289565b80601f01602080910402602001604051908101604052809291908181526020018280546200012b9062000289565b80156200017c5780601f1062000150576101008083540402835291602001916200017c565b820191906000526020600020905b8154815290600101906020018083116200015e57829003601f168201915b5050505050905090565b606060018054620001979062000289565b80601f0160208091040260200160405190810160405280929190818152602001828054620001c59062000289565b8015620002165780601f10620001ea5761010080835404028352916020019162000216565b820191906000526020600020905b815481529060010190602001808311620001f857829003601f168201915b5050505050905090565b600081519050919050565b7f4e487b7100000000000000000000000000000000000000000000000000000000600052604160045260246000fd5b7f4e487b7100000000000000000000000000000000000000000000000000000000600052602260045260246000fd5b60006002820490506001821680620002a257607f821691505b602082108103620002b857620002b76200025a565b5b50919050565b60008190508160005260206000209050919050565b60006020601f8301049050919050565b600082821b905092915050565b600060088302620003227fffffffffffffffffffffffffffffffffffffffffffffffffffffffffffffffff82620002e3565b6200032e8683620002e3565b95508019841693508086168417925050509392505050565b6000819050919050565b6000819050919050565b60006200037b620003756200036f8462000346565b62000350565b62000346565b9050919050565b6000819050919050565b62000397836200035a565b620003af620003a68262000382565b848454620002f0565b825550505050565b600090565b620003c6620003b7565b620003d38184846200038c565b505050565b5b81811015620003fb57620003ef600082620003bc565b600181019050620003d9565b5050565b601f8211156200044a576200041481620002be565b6200041f84620002d3565b810160208510156200042f578190505b620004476200043e85620002d3565b830182620003d8565b50505b505050565b600082821c905092915050565b60006200046f600019846008026200044f565b1980831691505092915050565b60006200048a83836200045c565b9150826002028217905092915050565b620004a58262000220565b67ffffffffffffffff811115620004c157620004c06200022b565b5b620004cd825462000289565b620004da828285620003ff565b600060209050601f831160018114620005125760008415620004fd578287015190505b6200050985826200047c565b86555062000579565b601f1984166200052286620002be565b60005b828110156200054c5784890151825560018201915060208501945060208101905062000525565b868310156200056c578489015162000568601f8916826200045c565b8355505b6001600288020188555050505b505050505050565b6131dd80620005916000396000f3fe608060405234801561001057600080fd5b50600436106101005760003560e01c80636352211e11610097578063b88d4fde11610066578063b88d4fde146102ad578063c87b56dd146102c9578063e5326ab1146102f9578063e985e9c51461031757610100565b80636352211e1461021357806370a082311461024357806395d89b4114610273578063a22cb4651461029157610100565b806320fcdcf0116100d357806320fcdcf01461019f57806323b872dd146101bd5780632f39352a146101d957806342842e0e146101f757610100565b806301ffc9a71461010557806306fdde0314610135578063081812fc14610153578063095ea7b314610183575b600080fd5b61011f600480360381019061011a9190611d1f565b610347565b60405161012c9190611d67565b60405180910390f35b61013d610429565b60405161014a9190611e12565b60405180910390f35b61016d60048036038101906101689190611e6a565b6104bb565b60405161017a9190611ed8565b60405180910390f35b61019d60048036038101906101989190611f1f565b610501565b005b6101a7610618565b6040516101b49190611f6e565b60405180910390f35b6101d760048036038101906101d29190611f89565b610700565b005b6101e1610760565b6040516101ee9190611e12565b60405180910390f35b610211600480360381019061020c9190611f89565b6107ee565b005b61022d60048036038101906102289190611e6a565b61080e565b60405161023a9190611ed8565b60405180910390f35b61025d60048036038101906102589190611fdc565b610894565b60405161026a9190611f6e565b60405180910390f35b61027b61094b565b6040516102889190611e12565b60405180910390f35b6102ab60048036038101906102a69190612035565b6109dd565b005b6102c760048036038101906102c291906121aa565b6109f3565b005b6102e360048036038101906102de9190611e6a565b610a55565b6040516102f09190611e12565b60405180910390f35b610301610b67565b60405161030e9190611e12565b60405180910390f35b610331600480360381019061032c919061222d565b610bf5565b60405161033e9190611d67565b60405180910390f35b60007f80ac58cd000000000000000000000000000000000000000000000000000000007bffffffffffffffffffffffffffffffffffffffffffffffffffffffff1916827bffffffffffffffffffffffffffffffffffffffffffffffffffffffff1916148061041257507f5b5e139f000000000000000000000000000000000000000000000000000000007bffffffffffffffffffffffffffffffffffffffffffffffffffffffff1916827bffffffffffffffffffffffffffffffffffffffffffffffffffffffff1916145b80610422575061042182610c89565b5b9050919050565b6060600080546104389061229c565b80601f01602080910402602001604051908101604052809291908181526020018280546104649061229c565b80156104b15780601f10610486576101008083540402835291602001916104b1565b820191906000526020600020905b81548152906001019060200180831161049457829003601f168201915b5050505050905090565b60006104c682610cf3565b6004600083815260200190815260200160002060009054906101000a900473ffffffffffffffffffffffffffffffffffffffff169050919050565b600061050c8261080e565b90508073ffffffffffffffffffffffffffffffffffffffff168373ffffffffffffffffffffffffffffffffffffffff160361057c576040517f08c379a00000000000000000000000000000000000000000000000000000000081526004016105739061233f565b60405180910390fd5b8073ffffffffffffffffffffffffffffffffffffffff1661059b610d3e565b73ffffffffffffffffffffffffffffffffffffffff1614806105ca57506105c9816105c4610d3e565b610bf5565b5b610609576040517f08c379a0000000000000000000000000000000000000000000000000000000008152600401610600906123d1565b60405180910390fd5b6106138383610d46565b505050565b6000806106256007610dff565b9050600060405180610160016040528061013681526020016130326101369139905060008161065384610e0d565b604051602001610664929190612479565b604051602081830303815290604052905060006106b161068385610e0d565b61068c84610edb565b60405160200161069d9291906125d8565b604051602081830303815290604052610edb565b90506000816040516020016106c69190612669565b60405160208183030381529060405290506106e1338661103e565b6106eb858261105c565b6106f560076110c9565b849550505050505090565b61071161070b610d3e565b826110df565b610750576040517f08c379a0000000000000000000000000000000000000000000000000000000008152600401610747906126fd565b60405180910390fd5b61075b838383611174565b505050565b6009805461076d9061229c565b80601f01602080910402602001604051908101604052809291908181526020018280546107999061229c565b80156107e65780601f106107bb576101008083540402835291602001916107e6565b820191906000526020600020905b8154815290600101906020018083116107c957829003601f168201915b505050505081565b610809838383604051806020016040528060008152506109f3565b505050565b60008061081a8361146d565b9050600073ffffffffffffffffffffffffffffffffffffffff168173ffffffffffffffffffffffffffffffffffffffff160361088b576040517f08c379a000000000000000000000000000000000000000000000000000000000815260040161088290612769565b60405180910390fd5b80915050919050565b60008073ffffffffffffffffffffffffffffffffffffffff168273ffffffffffffffffffffffffffffffffffffffff1603610904576040517f08c379a00000000000000000000000000000000000000000000000000000000081526004016108fb906127fb565b60405180910390fd5b600360008373ffffffffffffffffffffffffffffffffffffffff1673ffffffffffffffffffffffffffffffffffffffff168152602001908152602001600020549050919050565b60606001805461095a9061229c565b80601f01602080910402602001604051908101604052809291908181526020018280546109869061229c565b80156109d35780601f106109a8576101008083540402835291602001916109d3565b820191906000526020600020905b8154815290600101906020018083116109b657829003601f168201915b5050505050905090565b6109ef6109e8610d3e565b83836114aa565b5050565b610a046109fe610d3e565b836110df565b610a43576040517f08c379a0000000000000000000000000000000000000000000000000000000008152600401610a3a906126fd565b60405180910390fd5b610a4f84848484611616565b50505050565b6060610a6082610cf3565b6000600660008481526020019081526020016000208054610a809061229c565b80601f0160208091040260200160405190810160405280929190818152602001828054610aac9061229c565b8015610af95780601f10610ace57610100808354040283529160200191610af9565b820191906000526020600020905b815481529060010190602001808311610adc57829003601f168201915b505050505090506000610b0a611672565b90506000815103610b1f578192505050610b62565b600082511115610b54578082604051602001610b3c92919061281b565b60405160208183030381529060405292505050610b62565b610b5d84611689565b925050505b919050565b60088054610b749061229c565b80601f0160208091040260200160405190810160405280929190818152602001828054610ba09061229c565b8015610bed5780601f10610bc257610100808354040283529160200191610bed565b820191906000526020600020905b815481529060010190602001808311610bd057829003601f168201915b505050505081565b6000600560008473ffffffffffffffffffffffffffffffffffffffff1673ffffffffffffffffffffffffffffffffffffffff16815260200190815260200160002060008373ffffffffffffffffffffffffffffffffffffffff1673ffffffffffffffffffffffffffffffffffffffff16815260200190815260200160002060009054906101000a900460ff16905092915050565b60007f01ffc9a7000000000000000000000000000000000000000000000000000000007bffffffffffffffffffffffffffffffffffffffffffffffffffffffff1916827bffffffffffffffffffffffffffffffffffffffffffffffffffffffff1916149050919050565b610cfc816116f1565b610d3b576040517f08c379a0000000000000000000000000000000000000000000000000000000008152600401610d3290612769565b60405180910390fd5b50565b600033905090565b816004600083815260200190815260200160002060006101000a81548173ffffffffffffffffffffffffffffffffffffffff021916908373ffffffffffffffffffffffffffffffffffffffff160217905550808273ffffffffffffffffffffffffffffffffffffffff16610db98361080e565b73ffffffffffffffffffffffffffffffffffffffff167f8c5be1e5ebec7d5bd14f71427d1e84f3dd0314c0f7b2291e5b200ac8c7c3b92560405160405180910390a45050565b600081600001549050919050565b606060006001610e1c84611732565b01905060008167ffffffffffffffff811115610e3b57610e3a61207f565b5b6040519080825280601f01601f191660200182016040528015610e6d5781602001600182028036833780820191505090505b509050600082602001820190505b600115610ed0578080600190039150507f3031323334353637383961626364656600000000000000000000000000000000600a86061a8153600a8581610ec457610ec361283f565b5b04945060008503610e7b575b819350505050919050565b60606000825103610efd57604051806020016040528060008152509050611039565b60006040518060600160405280604081526020016131686040913990506000600360028551610f2c919061289d565b610f3691906128d1565b6004610f429190612902565b67ffffffffffffffff811115610f5b57610f5a61207f565b5b6040519080825280601f01601f191660200182016040528015610f8d5781602001600182028036833780820191505090505b509050600182016020820185865187015b80821015610ff9576003820191508151603f8160121c168501518453600184019350603f81600c1c168501518453600184019350603f8160061c168501518453600184019350603f8116850151845360018401935050610f9e565b5050600386510660018114611015576002811461102857611030565b603d6001830353603d6002830353611030565b603d60018303535b50505080925050505b919050565b611058828260405180602001604052806000815250611885565b5050565b611065826116f1565b6110a4576040517f08c379a000000000000000000000000000000000000000000000000000000000815260040161109b906129b6565b60405180910390fd5b806006600084815260200190815260200160002090816110c49190612b82565b505050565b6001816000016000828254019250508190555050565b6000806110eb8361080e565b90508073ffffffffffffffffffffffffffffffffffffffff168473ffffffffffffffffffffffffffffffffffffffff16148061112d575061112c8185610bf5565b5b8061116b57508373ffffffffffffffffffffffffffffffffffffffff16611153846104bb565b73ffffffffffffffffffffffffffffffffffffffff16145b91505092915050565b8273ffffffffffffffffffffffffffffffffffffffff166111948261080e565b73ffffffffffffffffffffffffffffffffffffffff16146111ea576040517f08c379a00000000000000000000000000000000000000000000000000000000081526004016111e190612cc6565b60405180910390fd5b600073ffffffffffffffffffffffffffffffffffffffff168273ffffffffffffffffffffffffffffffffffffffff1603611259576040517f08c379a000000000000000000000000000000000000000000000000000000000815260040161125090612d58565b60405180910390fd5b61126683838360016118e0565b8273ffffffffffffffffffffffffffffffffffffffff166112868261080e565b73ffffffffffffffffffffffffffffffffffffffff16146112dc576040517f08c379a00000000000000000000000000000000000000000000000000000000081526004016112d390612cc6565b60405180910390fd5b6004600082815260200190815260200160002060006101000a81549073ffffffffffffffffffffffffffffffffffffffff02191690556001600360008573ffffffffffffffffffffffffffffffffffffffff1673ffffffffffffffffffffffffffffffffffffffff168152602001908152602001600020600082825403925050819055506001600360008473ffffffffffffffffffffffffffffffffffffffff1673ffffffffffffffffffffffffffffffffffffffff16815260200190815260200160002060008282540192505081905550816002600083815260200190815260200160002060006101000a81548173ffffffffffffffffffffffffffffffffffffffff021916908373ffffffffffffffffffffffffffffffffffffffff160217905550808273ffffffffffffffffffffffffffffffffffffffff168473ffffffffffffffffffffffffffffffffffffffff167fddf252ad1be2c89b69c2b068fc378daa952ba7f163c4a11628f55a4df523b3ef60405160405180910390a461146883838360016118e6565b505050565b60006002600083815260200190815260200160002060009054906101000a900473ffffffffffffffffffffffffffffffffffffffff169050919050565b8173ffffffffffffffffffffffffffffffffffffffff168373ffffffffffffffffffffffffffffffffffffffff1603611518576040517f08c379a000000000000000000000000000000000000000000000000000000000815260040161150f90612dc4565b60405180910390fd5b80600560008573ffffffffffffffffffffffffffffffffffffffff1673ffffffffffffffffffffffffffffffffffffffff16815260200190815260200160002060008473ffffffffffffffffffffffffffffffffffffffff1673ffffffffffffffffffffffffffffffffffffffff16815260200190815260200160002060006101000a81548160ff0219169083151502179055508173ffffffffffffffffffffffffffffffffffffffff168373ffffffffffffffffffffffffffffffffffffffff167f17307eab39ab6107e8899845ad3d59bd9653f200f220920489ca2b5937696c31836040516116099190611d67565b60405180910390a3505050565b611621848484611174565b61162d848484846118ec565b61166c576040517f08c379a000000000000000000000000000000000000000000000000000000000815260040161166390612e56565b60405180910390fd5b50505050565b606060405180602001604052806000815250905090565b606061169482610cf3565b600061169e611672565b905060008151116116be57604051806020016040528060008152506116e9565b806116c884610e0d565b6040516020016116d992919061281b565b6040516020818303038152906040525b915050919050565b60008073ffffffffffffffffffffffffffffffffffffffff166117138361146d565b73ffffffffffffffffffffffffffffffffffffffff1614159050919050565b600080600090507a184f03e93ff9f4daa797ed6e38ed64bf6a1f0100000000000000008310611790577a184f03e93ff9f4daa797ed6e38ed64bf6a1f01000000000000000083816117865761178561283f565b5b0492506040810190505b6d04ee2d6d415b85acef810000000083106117cd576d04ee2d6d415b85acef810000000083816117c3576117c261283f565b5b0492506020810190505b662386f26fc1000083106117fc57662386f26fc1000083816117f2576117f161283f565b5b0492506010810190505b6305f5e1008310611825576305f5e100838161181b5761181a61283f565b5b0492506008810190505b612710831061184a5761271083816118405761183f61283f565b5b0492506004810190505b6064831061186d57606483816118635761186261283f565b5b0492506002810190505b600a831061187c576001810190505b80915050919050565b61188f8383611a73565b61189c60008484846118ec565b6118db576040517f08c379a00000000000000000000000000000000000000000000000000000000081526004016118d290612e56565b60405180910390fd5b505050565b50505050565b50505050565b600061190d8473ffffffffffffffffffffffffffffffffffffffff16611c90565b15611a66578373ffffffffffffffffffffffffffffffffffffffff1663150b7a02611936610d3e565b8786866040518563ffffffff1660e01b81526004016119589493929190612ecb565b6020604051808303816000875af192505050801561199457506040513d601f19601f820116820180604052508101906119919190612f2c565b60015b611a16573d80600081146119c4576040519150601f19603f3d011682016040523d82523d6000602084013e6119c9565b606091505b506000815103611a0e576040517f08c379a0000000000000000000000000000000000000000000000000000000008152600401611a0590612e56565b60405180910390fd5b805181602001fd5b63150b7a0260e01b7bffffffffffffffffffffffffffffffffffffffffffffffffffffffff1916817bffffffffffffffffffffffffffffffffffffffffffffffffffffffff191614915050611a6b565b600190505b949350505050565b600073ffffffffffffffffffffffffffffffffffffffff168273ffffffffffffffffffffffffffffffffffffffff1603611ae2576040517f08c379a0000000000000000000000000000000000000000000000000000000008152600401611ad990612fa5565b60405180910390fd5b611aeb816116f1565b15611b2b576040517f08c379a0000000000000000000000000000000000000000000000000000000008152600401611b2290613011565b60405180910390fd5b611b396000838360016118e0565b611b42816116f1565b15611b82576040517f08c379a0000000000000000000000000000000000000000000000000000000008152600401611b7990613011565b60405180910390fd5b6001600360008473ffffffffffffffffffffffffffffffffffffffff1673ffffffffffffffffffffffffffffffffffffffff16815260200190815260200160002060008282540192505081905550816002600083815260200190815260200160002060006101000a81548173ffffffffffffffffffffffffffffffffffffffff021916908373ffffffffffffffffffffffffffffffffffffffff160217905550808273ffffffffffffffffffffffffffffffffffffffff16600073ffffffffffffffffffffffffffffffffffffffff167fddf252ad1be2c89b69c2b068fc378daa952ba7f163c4a11628f55a4df523b3ef60405160405180910390a4611c8c6000838360016118e6565b5050565b6000808273ffffffffffffffffffffffffffffffffffffffff163b119050919050565b6000604051905090565b600080fd5b600080fd5b60007fffffffff0000000000000000000000000000000000000000000000000000000082169050919050565b611cfc81611cc7565b8114611d0757600080fd5b50565b600081359050611d1981611cf3565b92915050565b600060208284031215611d3557611d34611cbd565b5b6000611d4384828501611d0a565b91505092915050565b60008115159050919050565b611d6181611d4c565b82525050565b6000602082019050611d7c6000830184611d58565b92915050565b600081519050919050565b600082825260208201905092915050565b60005b83811015611dbc578082015181840152602081019050611da1565b60008484015250505050565b6000601f19601f8301169050919050565b6000611de482611d82565b611dee8185611d8d565b9350611dfe818560208601611d9e565b611e0781611dc8565b840191505092915050565b60006020820190508181036000830152611e2c8184611dd9565b905092915050565b6000819050919050565b611e4781611e34565b8114611e5257600080fd5b50565b600081359050611e6481611e3e565b92915050565b600060208284031215611e8057611e7f611cbd565b5b6000611e8e84828501611e55565b91505092915050565b600073ffffffffffffffffffffffffffffffffffffffff82169050919050565b6000611ec282611e97565b9050919050565b611ed281611eb7565b82525050565b6000602082019050611eed6000830184611ec9565b92915050565b611efc81611eb7565b8114611f0757600080fd5b50565b600081359050611f1981611ef3565b92915050565b60008060408385031215611f3657611f35611cbd565b5b6000611f4485828601611f0a565b9250506020611f5585828601611e55565b9150509250929050565b611f6881611e34565b82525050565b6000602082019050611f836000830184611f5f565b92915050565b600080600060608486031215611fa257611fa1611cbd565b5b6000611fb086828701611f0a565b9350506020611fc186828701611f0a565b9250506040611fd286828701611e55565b9150509250925092565b600060208284031215611ff257611ff1611cbd565b5b600061200084828501611f0a565b91505092915050565b61201281611d4c565b811461201d57600080fd5b50565b60008135905061202f81612009565b92915050565b6000806040838503121561204c5761204b611cbd565b5b600061205a85828601611f0a565b925050602061206b85828601612020565b9150509250929050565b600080fd5b600080fd5b7f4e487b7100000000000000000000000000000000000000000000000000000000600052604160045260246000fd5b6120b782611dc8565b810181811067ffffffffffffffff821117156120d6576120d561207f565b5b80604052505050565b60006120e9611cb3565b90506120f582826120ae565b919050565b600067ffffffffffffffff8211156121155761211461207f565b5b61211e82611dc8565b9050602081019050919050565b82818337600083830152505050565b600061214d612148846120fa565b6120df565b9050828152602081018484840111156121695761216861207a565b5b61217484828561212b565b509392505050565b600082601f83011261219157612190612075565b5b81356121a184826020860161213a565b91505092915050565b600080600080608085870312156121c4576121c3611cbd565b5b60006121d287828801611f0a565b94505060206121e387828801611f0a565b93505060406121f487828801611e55565b925050606085013567ffffffffffffffff81111561221557612214611cc2565b5b6122218782880161217c565b91505092959194509250565b6000806040838503121561224457612243611cbd565b5b600061225285828601611f0a565b925050602061226385828601611f0a565b9150509250929050565b7f4e487b7100000000000000000000000000000000000000000000000000000000600052602260045260246000fd5b600060028204905060018216806122b457607f821691505b6020821081036122c7576122c661226d565b5b50919050565b7f4552433732313a20617070726f76616c20746f2063757272656e74206f776e6560008201527f7200000000000000000000000000000000000000000000000000000000000000602082015250565b6000612329602183611d8d565b9150612334826122cd565b604082019050919050565b600060208201905081810360008301526123588161231c565b9050919050565b7f4552433732313a20617070726f76652063616c6c6572206973206e6f7420746f60008201527f6b656e206f776e6572206f7220617070726f76656420666f7220616c6c000000602082015250565b60006123bb603d83611d8d565b91506123c68261235f565b604082019050919050565b600060208201905081810360008301526123ea816123ae565b9050919050565b600081905092915050565b600061240782611d82565b61241181856123f1565b9350612421818560208601611d9e565b80840191505092915050565b7f3c2f746578743e3c2f7376673e00000000000000000000000000000000000000600082015250565b6000612463600d836123f1565b915061246e8261242d565b600d82019050919050565b600061248582856123fc565b915061249182846123fc565b915061249c82612456565b91508190509392505050565b7f7b226e616d65223a202200000000000000000000000000000000000000000000600082015250565b60006124de600a836123f1565b91506124e9826124a8565b600a82019050919050565b7f222c20226465736372697074696f6e223a20224120686967686c79206163636c60008201527f61696d656420636f6c6c656374696f6e2057617272696f7273222c2022696d6160208201527f6765223a2022646174613a696d6167652f7376672b786d6c3b6261736536342c604082015250565b60006125766060836123f1565b9150612581826124f4565b606082019050919050565b7f227d000000000000000000000000000000000000000000000000000000000000600082015250565b60006125c26002836123f1565b91506125cd8261258c565b600282019050919050565b60006125e3826124d1565b91506125ef82856123fc565b91506125fa82612569565b915061260682846123fc565b9150612611826125b5565b91508190509392505050565b7f646174613a6170706c69636174696f6e2f6a736f6e3b6261736536342c000000600082015250565b6000612653601d836123f1565b915061265e8261261d565b601d82019050919050565b600061267482612646565b915061268082846123fc565b915081905092915050565b7f4552433732313a2063616c6c6572206973206e6f7420746f6b656e206f776e6560008201527f72206f7220617070726f76656400000000000000000000000000000000000000602082015250565b60006126e7602d83611d8d565b91506126f28261268b565b604082019050919050565b60006020820190508181036000830152612716816126da565b9050919050565b7f4552433732313a20696e76616c696420746f6b656e2049440000000000000000600082015250565b6000612753601883611d8d565b915061275e8261271d565b602082019050919050565b6000602082019050818103600083015261278281612746565b9050919050565b7f4552433732313a2061646472657373207a65726f206973206e6f74206120766160008201527f6c6964206f776e65720000000000000000000000000000000000000000000000602082015250565b60006127e5602983611d8d565b91506127f082612789565b604082019050919050565b60006020820190508181036000830152612814816127d8565b9050919050565b600061282782856123fc565b915061283382846123fc565b91508190509392505050565b7f4e487b7100000000000000000000000000000000000000000000000000000000600052601260045260246000fd5b7f4e487b7100000000000000000000000000000000000000000000000000000000600052601160045260246000fd5b60006128a882611e34565b91506128b383611e34565b92508282019050808211156128cb576128ca61286e565b5b92915050565b60006128dc82611e34565b91506128e783611e34565b9250826128f7576128f661283f565b5b828204905092915050565b600061290d82611e34565b915061291883611e34565b925082820261292681611e34565b9150828204841483151761293d5761293c61286e565b5b5092915050565b7f45524337323155524953746f726167653a2055524920736574206f66206e6f6e60008201527f6578697374656e7420746f6b656e000000000000000000000000000000000000602082015250565b60006129a0602e83611d8d565b91506129ab82612944565b604082019050919050565b600060208201905081810360008301526129cf81612993565b9050919050565b60008190508160005260206000209050919050565b60006020601f8301049050919050565b600082821b905092915050565b600060088302612a387fffffffffffffffffffffffffffffffffffffffffffffffffffffffffffffffff826129fb565b612a4286836129fb565b95508019841693508086168417925050509392505050565b6000819050919050565b6000612a7f612a7a612a7584611e34565b612a5a565b611e34565b9050919050565b6000819050919050565b612a9983612a64565b612aad612aa582612a86565b848454612a08565b825550505050565b600090565b612ac2612ab5565b612acd818484612a90565b505050565b5b81811015612af157612ae6600082612aba565b600181019050612ad3565b5050565b601f821115612b3657612b07816129d6565b612b10846129eb565b81016020851015612b1f578190505b612b33612b2b856129eb565b830182612ad2565b50505b505050565b600082821c905092915050565b6000612b5960001984600802612b3b565b1980831691505092915050565b6000612b728383612b48565b9150826002028217905092915050565b612b8b82611d82565b67ffffffffffffffff811115612ba457612ba361207f565b5b612bae825461229c565b612bb9828285612af5565b600060209050601f831160018114612bec5760008415612bda578287015190505b612be48582612b66565b865550612c4c565b601f198416612bfa866129d6565b60005b82811015612c2257848901518255600182019150602085019450602081019050612bfd565b86831015612c3f5784890151612c3b601f891682612b48565b8355505b6001600288020188555050505b505050505050565b7f4552433732313a207472616e736665722066726f6d20696e636f72726563742060008201527f6f776e6572000000000000000000000000000000000000000000000000000000602082015250565b6000612cb0602583611d8d565b9150612cbb82612c54565b604082019050919050565b60006020820190508181036000830152612cdf81612ca3565b9050919050565b7f4552433732313a207472616e7366657220746f20746865207a65726f2061646460008201527f7265737300000000000000000000000000000000000000000000000000000000602082015250565b6000612d42602483611d8d565b9150612d4d82612ce6565b604082019050919050565b60006020820190508181036000830152612d7181612d35565b9050919050565b7f4552433732313a20617070726f766520746f2063616c6c657200000000000000600082015250565b6000612dae601983611d8d565b9150612db982612d78565b602082019050919050565b60006020820190508181036000830152612ddd81612da1565b9050919050565b7f4552433732313a207472616e7366657220746f206e6f6e20455243373231526560008201527f63656976657220696d706c656d656e7465720000000000000000000000000000602082015250565b6000612e40603283611d8d565b9150612e4b82612de4565b604082019050919050565b60006020820190508181036000830152612e6f81612e33565b9050919050565b600081519050919050565b600082825260208201905092915050565b6000612e9d82612e76565b612ea78185612e81565b9350612eb7818560208601611d9e565b612ec081611dc8565b840191505092915050565b6000608082019050612ee06000830187611ec9565b612eed6020830186611ec9565b612efa6040830185611f5f565b8181036060830152612f0c8184612e92565b905095945050505050565b600081519050612f2681611cf3565b92915050565b600060208284031215612f4257612f41611cbd565b5b6000612f5084828501612f17565b91505092915050565b7f4552433732313a206d696e7420746f20746865207a65726f2061646472657373600082015250565b6000612f8f602083611d8d565b9150612f9a82612f59565b602082019050919050565b60006020820190508181036000830152612fbe81612f82565b9050919050565b7f4552433732313a20746f6b656e20616c7265616479206d696e74656400000000600082015250565b6000612ffb601c83611d8d565b915061300682612fc5565b602082019050919050565b6000602082019050818103600083015261302a81612fee565b905091905056fe3c7376672076696577426f783d2730203020333530203335302720786d6c6e733d27687474703a2f2f7777772e77332e6f72672f323030302f73766727203e3c7374796c653e2e62617365207b2066696c6c3a2077686974653b20666f6e742d66616d696c793a2073657269663b20666f6e742d73697a653a20323470783b207d3c2f7374796c653e3c636972636c652063783d27313735272063793d273137352720723d27313735272077696474683d273130302527206865696768743d2731303025272066696c6c3d27626c61636b273e3c2f636972636c653e3c7465787420783d273530252720793d273530252720636c6173733d27626173652720646f6d696e616e742d626173656c696e653d276d6964646c652720746578742d616e63686f723d276d6964646c65273e546f6b656e20234142434445464748494a4b4c4d4e4f505152535455565758595a6162636465666768696a6b6c6d6e6f707172737475767778797a303132333435363738392b2fa26469706673582212201d2cf57397bb70bb6fb82948d03eb61a9ef00383053c729807024f6405748db464736f6c63430008130033",
  "linkReferences": {},
  "deployedLinkReferences": {}
}